:030000000207DE16
:0C07DE00787FE4F6D8FD758120020382CC
:08076B00D296D2977F3C7E007C
:0C077300EF4E6007EF1F70F81E80F522AB
:1007A50012076BC29612076FC2977F3C7E00020745
:0107B50073D0
:10077F00C29612076DD29612076FC2977F3C7E000A
:03078F00020773EB
:0E07B600C29612076DC2977F3C7E0002077349
:0C07EA0012076BC2977F3C7E0002077371
:0806E0001207A57FDA1206786B
:1006E800D296D2977F1E7E00120773A29692D57F6C
:1006F8001E7E00120773C29712076F30D502C322FD
:02070800D322FA
:08067800151AA81AA607151AAD
:10068000A81AE4F6A81AE6FFC364809488501C08F0
:10069000E6FEA807088002C333D8FC30E70512073E
:0B06A000EA80031207B6A81A0680D9F2
:0506AB00051A051A22EA
:0405D700151A151AC2
:1005DB00A81AE4F6A81A08F6A81A08A900C3E76433
:1005EB00809488503BD296D2977F0A7E0012077375
:1005FB00A29692D57F0A7E00120773C297A81A3073
:10060B00D510C000E625E0D000F6A81A740146F616
:10061B008008C000E625E0D000F6A81A080680B8CE
:04062B00A81AE6FF24
:05062F00051A051A2266
:02072B00AC0719
:10072D00D2001206E09200AF041206781206E8928B
:0E073D0000AF051206781206E8920002077F50
:0206B000AD0794
:1006B200D2001206E09200AF051206781206E89206
:1006C200001207A57FDB1206781206E892001205D7
:0D06D200D7AD071206E8920012077FAF05B2
:0106DF0022F8
:10074B00E4FDFCC3ED9FEC9E5015E4FBFA0BBB00E4
:0F075B00010AEB64704A70F50DBD00010C80E4DB
:01076A00226C
:10079200C2A17E08C2A2EF3392A0EF25E0FFD2A24F
:0207A200DEF285
:0107A4002232
:0D07C400C2A1120792AF05120792D2A12226
:10070A007DFF7F091207C47D037F0A1207C47D0794
:10071A007F0B1207C47D017F0C1207C47F0F0207EB
:01072A00C40A
:1003820012070A7FE87E0312074BE4FD7F0F120774
:10039200C47FA51206B0AD075305FD7FA512072B3A
:1003A2007D0A7F3012072B7F301206B0EF5408D33C
:1003B200940050F37F061206B0AC077F071206B016
:1003C2008F087F081206B08F09AF04E4FCFDFEFB24
:1003D200FA7901F8120241A804A905AA06AB07E5B9
:1003E20008FEE4FCFD2BFBEA3EFAED39F9EC38F8A5
:1003F200E4FEEB2509F50DEE3AF50CED39F50BECC3
:1004020038F50AE4FF7D80AB0DAA0CA90BA80AD32C
:1004120012029E4013E4250DFFE4350CFEE4350B79
:10042200FDE50A34FFFC8009AF0DAE0CAD0BAC0A42
:10043200EC120182E4FBFA7980783E1200038F11FC
:100442008E108D0F8C0EE4FFFEFDFCAB11AA10A9DD
:100452000FA80E1201095013AF11AE10AD0FAC0E62
:100462001207D18F118E108D0F8C0EAF11AE10AD01
:100472000FAC0E1201C07B807A9679987800120632
:10048200348F12AF11AE10AD0FAC0E1201C07B80D3
:100492007A9679987800120634AC00AD01AE02AFBC
:1004A200037B407A42790F78001206348F13AF1122
:1004B200AE10AD0FAC0E1201C07B407A42790F78BC
:1004C20000120634AC00AD01AE02AF037BA07A8607
:1004D200790178001206348F14AF11AE10AD0FAC53
:1004E2000E1201C07BA07A8679017800120634AC24
:1004F20000AD01AE02AF03E47B107A27F9F81206D1
:10050200348F15AF11AE10AD0FAC0E1201C0E47BEB
:10051200107A27F9F8120634AC00AD01AE02AF032F
:10052200E47BE87A03F9F81206348F16AF11AE10A5
:10053200AD0FAC0E1201C0E47BE87A03F9F81206A3
:1005420034AC00AD01AE02AF03E47B64FAF9F812F9
:1005520006348F17AF11AE10AD0FAC0E1201C0E40E
:100562007B64FAF9F8120634AC00AD01AE02AF03B7
:10057200E47B0AFAF9F81206348F18AF11AE10AD07
:100582000FAC0E1201C0E47B0AFAF9F8120634AF7E
:10059200038F19AD127F081207C4AD137F0712072C
:1005A200C4AD147F061207C4AD157F051207C4AD92
:1005B200167F041207C4AD177F031207C4AD187F5C
:1005C200021207C4AD197F011207C47F647E0012B4
:0505D200074B0203933A
:10000300EC4D6011E8497017ED33EC3304600DE4F7
:10001300FCFFFEFD22E933E8330470F802022C12E0
:1000230001F758046009E4CC2481500628500902E2
:100033000236284003020233C0E0EB4A7044B98021
:1000430006D0E0FB020222EF4E701CBD8008EBFFDE
:10005300EAFEE9FD80EBE98DF0A4FEE5F00200EC99
:10006300E9CDF9EAFEEBFFEF89F0A4FCE5F0CE89D8
:10007300F0A42EFFE435F0CD89F0A42DFEE435F095
:100083008067EF4E7005BD80D780C3EF8BF0A4ACC3
:10009300F0EE8BF0A42CFCE435F0F8EF8AF0A42CFE
:1000A300E5F038FCE433CB8DF0A42CFCE5F03BF811
:1000B300EE8AF0A42CFCE5F038F8E433CF89F0A401
:1000C3002CFCE5F038CF3400CE89F0A42FFFE5F007
:1000D3003EFEE433C98DF0A42EFEE5F039CD8AF05F
:1000E300A42FFFE5F03EFEE43DFD33D0E0FB5007D7
:1000F3000BBB000F020236EC2CFCEF33FFEE33FE9A
:06010300ED33FD02020EC7
:1001090074F8CC6480CCC86480C8F58204604FC39D
:10011900EB9FF5F0EA9E42F0E99D42F0E89C45F03C
:10012900603C501DE5825FFFE582D313CB5BCBF4C6
:100139002B5582FB50280ABA002409B900200880EF
:100149001DE5825BFBE582D313CF5FCFF4C3132F89
:100159005582FF50090EBE00050DBD00010CC3EB11
:100169009FF5F0EA9E42F0E99D42F0E89C45F06077
:0901790007CC4820E701B3EC2299
:1001820075F020800E75F010800575F0087D007EF8
:10019200007F003392D530D503120290EC33401029
:1001A200EF33FFEE33FEED33FDEC33FCD5F0ED2201
:0E01B200E5F0247EA2D513CC92E7CDCEFF223D
:1001C000EDD2E7CD33EC3392D524814006E4FFFE37
:1001D000FDFC22FCE4CFCECDCC24E0501174FF8096
:1001E000EDC3CC13CCCD13CDCE13CECF13CF047033
:0701F000F030D5DE020290A1
:0D07D100ED33EC3360065004EC6480FC2234
:1001F700E9D2E7C933E833F892D5EDD2E7CD33EC4E
:0702070033FC5002B2D522C6
:10020E00EC30E7100FBF000C0EBE00080DBD000451
:10021E000BEB6014A2D5EB13FCED92E7FD2274FFFD
:10022E00FCFDFEFF22E480F8A2D574FF13FC7D8056
:03023E00E480EF6A
:10024100E88FF0A4CC8BF0A42CFCE98EF0A42CFC5C
:100251008AF0EDA42CFCEA8EF0A4CDA8F08BF0A4DA
:100261002DCC3825F0FDE98FF0A42CCD35F0FCEB39
:100271008EF0A4FEA9F0EB8FF0A4CFC5F02ECD39FE
:0F028100FEE43CFCEAA42DCE35F0FDE43CFC226B
:10063400C2D5E830E70FB2D5E4C39BFBE49AFAE4F1
:1006440099F9E498F8EC30E717B2D512066A120269
:10065400F0E4C39BFBE49AFAE499F9E498F8800384
:100664001202F030D50DE4C39FFFE49EFEE49DFD2D
:04067400E49CFC22E4
:0E029000C3E49FFFE49EFEE49DFDE49CFC227F
:10029E00EB9FF5F0EA9E42F0E99D42F0EC6480C8D7
:0602AE0064809845F02277
:1002B40075F008758200EF2FFFEE33FECD33CDCC01
:1002C40033CCC58233C5829BED9AEC99E582984084
:1002D4000CF582EE9BFEED9AFDEC99FC0FD5F0D661
:1002E400E4CEFBE4CDFAE4CCF9A88222B800C1B98B
:1002F4000059BA002DEC8BF084CFCECDFCE5F0CBC9
:10030400F97818EF2FFFEE33FEED33FDEC33FCEB01
:1003140033FB10D703994004EB99FB0FD8E5E4F9BC
:10032400FA227818EF2FFFEE33FEED33FDEC33FCA9
:10033400C933C910D7059BE99A4007EC9BFCE99A9D
:10034400F90FD8E0E4C9FAE4CCFB2275F010EF2FE2
:10035400FFEE33FEED33FDCC33CCC833C810D707E2
:100364009BEC9AE899400AED9BFDEC9AFCE899F81D
:0E0374000FD5F0DAE4CDFBE4CCFAE4C8F922B0
:00000001FF
