:400000000080002011000000090700000907000080B500AF024A034B1B68136000F0A6FBBC760040FA460040010000000020004001000000002001400100000000480040AC
:400040000100000000480140010000000100000008000223000008760800032300001076080004230000287608000523000030760500062300002070050007230000307065
:4000800005000823000060700500FE230000707030000A220000405110000B220000C0511000FE220000F05180030D220000000080050E220000000480000F220000800CE6
:4000C000800010220000000E800011220000800F80031222000000148001132200000018000214220000001A8006152200000042000216220000004C1000FE2200001050FE
:4001000007001823000000522000FE230000706408001A230000005180001B230000000A80001C230000800A80001D230000000C80001E230000800E10001F2300000050B2
:40014000800020230000801980002123000080178000222300008009800023230000000B800024230000800B800025230000000D800026230000800D8000272300008003DF
:40018000800028230000000F800029230000004980002A230000804980002B230000804880002C230000004180002D230000804180002E23000000408000FE230000804011
:4001C00010B5054C237833B9044B13B10448AFF300800123237010BD4881FF1F0000000070210000084B10B51BB108490848AFF300800848036803B910BD074B002BFBD0B2
:40020000BDE81040184700BF000000004C81FF1F70210000C880FF1F0000000080B400AF054B1B78054B1B780133DAB2034B1A7000BFBD4680BC70476C6400407881FF1FAC
:4002400090B587B000AF324800F078FE00F03CFC00F070FB62B6012000F0B8FC0021002000F044FC2B4800F079FC0021012000F03DFC294800F072FC002000F089FB4FF4B9
:400280007A7000F0A9FE0621002000F02FFC00F08DFB024613461B019B1A9B007B617B691E4AA2FB0323DB089BB2184600F0D2FD0621012000F01AFC7B69184AA2FB032347
:4002C000DB08184601F048F80FA3D3E9002301F0B9F803460C461846214601F0C5FA03463B613B4600221A605A609A60C3F80B203B463A690A49184601F016FB3B461846F7
:4003000000F02CFCB8E700BF7B14AE47E17A643F1D020000742100007C210000ABAAAAAA8421000080B584B000AFF860B9607A607A68B968F86801F0EBFA00BF1037BD4681
:4003400080BD00BF80B483B000AF0346FB71FEE780B483B000AF434B00221A60424B10221A70424B01221A70414B00221A70414B4FF4B8721A80404B01221A703F4B03225C
:400380001A703F4B3F4A92B21A803F4B47F608021A803E4B00221A803D4B4FF480421A803C4B09221A703C4B0C221A703B4B17221A703B4B19221A70BFF35F8F394B012295
:4003C0001A70BFF35F8F00BF2A4B1B889BB2002BFAD100237B600DE07B68DA00324B13441946324A7B6852F823309BB20B807B6801337B607B682D2BEED9BFF35F8F294B02
:4004000001221A70BFF35F8F00BF294B1B78DBB203F00103002BF8D100BF264B1B78DBB203F00103002BF8D100BF234B1B78DBB203F00103002BF8D100BF204B1B78DBB274
:4004400003F00103002BF8D100BF1D4B1B78DBB203F00103002BF8D100BF0C37BD4680BC704700BF6881FF1F00760040107000401970004000780040027800400378004035
:40048000047800405000000006780040047600400676004029700040397000406970004079700040147000400C7800408C2100001870004028700040387000406870004023
:4004C0007870004080B582B000AF304B00221A802F4B58221A702F4B02221A704FF0402308221A702C4B03221A702C4B2C4A1278D2B21A702B4B08221A802B4B41F251228A
:400500001A800023FB7019237B6014E0FB785B00DAB2264B1B78DBB203F00103DBB21343DBB203F00303FB704FF4F07000F0A8FD7B68013B7B607B68002B02D0FB78032B1F
:40054000E4D17B68002B02D10320FFF7FBFE184B4FF480721A80164B07221A70154B00221A70154B48221A70114B00221A70134B02221A70124A124B1B78DBB243F0010309
:40058000DBB2137000BF0837BD4680BD80400040824000400043004000420040A146004008010049224200402042004025420040044000400640004008400040014000406D
:4005C000A243004080B483B000AF0B4B1B78FB710A4AFB7903F00703DBB21370084AFB791B09DBB21370074B44221A7000BF0C37BD4680BC704700BFCF0100496E58004084
:400600006F5800407658004080B500AF72B62D4A2C4B1B78DBB243F00403DBB21370FFF797FE294A284B1B78DBB243F00203DBB21370264A254B1B78DBB243F00203DBB2A3
:400640001370234A224B1B78DBB243F04003DBB21370204A1F4B1B78DBB243F01003DBB2137008221C491D48FFF75CFE08221C491C48FFF757FE08221B491C48FFF752FE73
:400680000A221B491B48FFF74DFE1B4A1A4B1B78DBB243F00803DBB21370184B60221A70FFF710FF154B80221A70154B01221A70FFF788FF0E2206491248FFF733FE00BF85
:4006C00080BD00BFE84600400350014013500140A0430040C2430040400A004802510040480A004812510040500A004822510040580A0048305100402243004000480040A1
:4007000004000840B043004080B500AF01F0D4F803461B680C2B00D1FEE7FEE780B584B000AF78600F4B1A687B6813441A460E4BD31A802B09DC0B4B1B68FB60094B1A68B5
:400740007B681344074A136007E001F0B5F802460C2313604FF0FF33FB60FB6818461037BD4680BDCC80FF1F8081FF1F80B586B000AF224B7B61224B3B61204B7B6135E0A7
:400780003B691B68FB603B695B68BB603B699B683B6000237B600CE0FB681A68BB681A60BB680433BB60FB680433FB607B6804337B607A683B689A42EED13B69DB683B6086
:4007C00000237B6008E0BB6800221A60BB680433BB607B6804337B607A683B689A42F2D13B6910333B617B69013B7B617B69002BC6D101F067F8FFF723FDFEE70100000055
:40080000E022000080B582B000AF184B184A1A60184A184B1B6843F40073136000237B600FE07B68032B04D8134A7B6852F8233000E0124B12497A6841F822307B68013329
:400840007B607B682F2BECD90E4B1B78DAB20E4B1A700E4B0A4A1A60FFF7D6FE0C4B00221A6000BF0837BD4680BD00BF0CED00E00004FA0514ED00E0000000000907000092
:400880000080FF1FBC760040C480FF1F08ED00E0C080FF1F80B582B000AF1C4B1B78DBB223F00703FB71194AFB7943F00103DBB21370164B1B78DBB223F00303FB71134AEC
:4008C000FB79137000F0AAF8642000F08BF8002000F05EF80C2000F03FF800F04DF8322000F08EF800F0EBFB0346BB71084A084B1B78DBB243F01003DBB21370BB791846CA
:4009000000F0E1FB00BF0837BD4680BD7B6400409C64004080B400AF054A054B1B78DBB263F07F03DBB2137000BFBD4680BC70477B64004080B500AF064B1B78002B04D12B
:40094000FFF7A8FF034B01221A70FFF7E3FF00BF80BD00BF6C81FF1F80B483B000AF0346FB71044AFB79137000BF0C37BD4680BC704700BF8C64004080B400AF034B1B7886
:40098000DBB21846BD4680BC704700BF6C64004080B582B000AF78607968034800F052FB00BF0837BD4680BD0A64004080B400AF044B1B78044B1B6823F07F431846BD4677
:4009C00080BC70470A6400404A64004080B400AF034B1B6823F07F431846BD4680BC70474A64004080B582B000AF78607968034800F028FB00BF0837BD4680BD2A64004064
:400A000080B582B000AF78607968034800F01AFB00BF0837BD4680BD3A64004080B500AF01E0FFF7D3FFFFF7A7FF034603F04003002BF6D100BF80BD80B500AF282000F0C9
:400A4000CBFA032000F0D4F9052000F0C5FA032000F0CEF90F2000F0BFFA032000F0C8F9012000F0B9FA022000F0C2F9052000F0B3FA062000F0AAF80E2000F0A7F82C2063
:400A800000F0A4F8082000F0A1F8012000F09EF80C2000F09BF8032000F098F8052000F09BFA024800F028FA00BF80BD4422000080B500AF0C2000F089F8024B01221A701D
:400AC00000BF80BD6D81FF1F80B500AF064B1B78002B04D1FFF7B0FF034B01221A70FFF7E7FF00BF80BD00BF6E81FF1F80B582B000AF03460A46FB711346BB71FB79032BA0
:400B000026D801A252F823F0190B0000270B0000350B0000430B0000BB79803BDBB2184600F054F815E0BB79403BDBB2184600F04DF80EE0BB796C3BDBB2184600F046F817
:400B400007E0BB792C3BDBB2184600F03FF800E000BF00BF0837BD4680BD00BF80B584B000AF78600123FB737B681B78BB730BE0BB7B184600F010F8FB7B7A6813441B7866
:400B8000BB73FB7B0133FB73BB7B002BF0D100BF1037BD4680BD00BF80B584B000AF0346FB7100F02DF8FB791B09FB73FB7B184600F0E2F8FB7903F00F03FB73FB7B184687
:400BC00000F0DAF800BF1037BD4680BD80B584B000AF0346FB7100F013F8FB791B09FB73FB7B184600F004F9FB7903F00F03FB73FB7B184600F0FCF800BF1037BD4680BD79
:400C000080B582B000AF4FF4CA737B60554A554B1B78DBB223F07F03DBB21370524B1B78DBB223F00F03FB704F4AFB7843F00F03DBB213704D4B1B78DBB223F00F03FB7049
:400C40004A4AFB7813704A4B1B78DBB223F00F03FB70474AFB781370424A424B1B78DBB223F02003DBB213703E4A3E4B1B78DBB243F04003DBB21370002000F0CFF9394A8D
:400C8000384B1B78DBB243F01003DBB21370012000F0C4F9374B1B78FB70324A314B1B78DBB223F01003DBB21370002000F0B6F9FB7803F00803FB702A4A2A4B1B78DBB2FB
:400CC00043F01003DBB21370012000F0A7F9254A244B1B78DBB223F01003DBB21370FB78002B02D10A2000F099F97B68013B7B60FB78002B02D07B68002BBDD1194A194BCF
:400D00001B78DBB223F04003DBB21370154A154B1B78DBB223F07F03DBB21370124A124B1B78DBB223F00F03DBB213700F4B1B78DBB223F00F03FB700C4AFB7843F00F0383
:400D4000DBB213700A4B1B78DBB223F00F03FB70074AFB7843F00F03DBB2137000BF0837BD4680BD205100402251004023510040245100402151004080B582B000AF034629
:400D8000FB711A4A194B1B78DBB243F02003DBB21370164A154B1B78DBB223F04003DBB21370002000F03AF9104A104B1B78DBB223F00F03DBB213700C490C4B1B78DAB21B
:400DC000FB791343DBB243F01003DBB20B70012000F024F9054A054B1B78DBB223F01003DBB2137000BF0837BD4680BD2051004080B582B000AF0346FB71154A144B1B7820
:400E0000DBB223F06003DBB21370114A104B1B78DBB223F00F03DBB213700D490C4B1B78DAB2FB791343DBB243F01003DBB20B70012000F0F3F8064A054B1B78DBB223F054
:400E40001003DBB2137000BF0837BD4680BD00BF2051004080B586B000AF78600A23FB75FB7D07F118021344002203F8102CFB7D013BFB751CE079681E4BA3FB0123DA08CA
:400E800013469B0013445B00CA1AD3B23033BB75FB7D07F118021344BA7D03F8102C7B68144AA2FB0323DB087B60FB7D013BFB757B68092BDFD879680E4BA3FB0123DA08AF
:400EC00013469B0013445B00CA1AD3B23033BB75FB7D07F118021344BA7D03F8102CFB7D07F1080213441846FFF738FE00BF1837BD4680BDCDCCCCCC80B584B000AF786037
:400F0000FFF77EFE4020FFF761FE0023FB7309E0FB7B7A6813441B781846FFF73DFEFB7B0133FB73FB7B3F2BF2D9FFF769FE8020FFF74CFE00BF1037BD4680BD80B582B092
:400F400000AF786000F03CF8786800F009F8072000F018F800F028F800BF0837BD4680BD80B485B000AF7860054B1B68FB60FB6840337A681A6000BF1437BD4680BC704730
:400F800008ED00E080B483B000AF0346FB71054AFB795B01DBB2137000BF0C37BD4680BC704700BF00E400E080B400AF034B01221A6000BFBD4680BC704700BF00E100E0E4
:400FC00080B400AF034B01221A6000BFBD4680BC704700BF80E100E080B582B000AF786008E00C4B1B68184600F04AF87B68A3F500437B607B68B3F5004FF2D8064B1B681D
:401000007A6802FB03F3184600F03AF800BF0837BD4680BDDC80FF1FD480FF1F80B582B000AF0346FB80FB88054A127802FB03F3184600F025F800BF0837BD4680BD00BFA0
:40104000D880FF1F80B485B000AF786039607B68FB603B68DAB2FB681A70FB6801333A68120AD2B21A70FB6802333A68120CD2B21A7000BF1437BD4680BC7047000000004E
:40108000142816D902B4012114381049097811F0C001890904B40E4A515C04BC00BF00BF00BF8841FDD500BF00BF02BC704700BF00BF70F10400FCD570470B050709EFF3FE
:4010C000108072B6704780F31088704700480040BA10000081F0004102E000BF83F0004330B54FEA41044FEA430594EA050F08BF90EA020F1FBF54EA000C55EA020C7FEABE
:40110000645C7FEA655C00F0E2804FEA5454D4EB5555B8BF6D420CDD2C4480EA020281EA030382EA000083EA010180EA020281EA0303362D88BF30BD11F0004F4FEA0131BF
:401140004FF4801C4CEA113102D0404261EB410113F0004F4FEA03334CEA133302D0524263EB430394EA050F00F0A780A4F10104D5F1200E0DDB02FA0EFC22FA05F280182F
:4011800041F1000103FA0EF2801843FA05F359410EE0A5F120050EF1200E012A03FA0EFC28BF4CF0020C43FA05F3C01851EBE37101F0004507D54FF0000EDCF1000C7EEB21
:4011C00000006EEB0101B1F5801F1BD3B1F5001F0CD349085FEA30004FEA3C0C04F101044FEA445212F5800F80F09A80BCF1004F08BF5FEA500C50F1000041EB045141EA34
:40120000050130BD5FEA4C0C404141EB010111F4801FA4F10104E9D191F0000F04BF01460020B1FA81F308BF2033A3F10B03B3F120020CDA0C3208DD02F1140CC2F10C023B
:4012400001FA0CF021FA02F10CE002F11402D8BFC2F1200C01FA02F120FA0CFCDCBF41EA0C019040E41AA2BF01EB0451294330BD6FEA04041F3C1CDA0C340EDC04F1140469
:40128000C4F1200220FA04F001FA02F340EA030021FA04F345EA030130BDC4F10C04C4F1200220FA02F001FA04F340EA0300294630BD21FA04F0294630BD94F0000F83F462
:4012C000801306BF81F480110134013D4EE77FEA645C18BF7FEA655C29D094EA050F08BF90EA020F05D054EA000C04BF1946104630BD91EA030F1EBF0021002030BD5FEA7C
:40130000545C05D14000494128BF41F0004130BD14F580043CBF01F5801130BD01F0004545F0FE4141F470014FF0000030BD7FEA645C1ABF194610467FEA655C1CBF0B4692
:40134000024650EA013406BF52EA033591EA030F41F4002130BD00BF90F0000F04BF0021704730B54FF4806404F132044FF000054FF0000150E700BF90F0000F04BF0021A0
:40138000704730B54FF4806404F1320410F0004548BF40424FF000013EE700BF42004FEAE2014FEA31014FEA02701FBF12F07F4393F07F4F81F06051704792F0000F14BFA9
:4013C00093F07F4F704730B54FF4607401F0004521F0004120E700BF50EA010208BF704730B54FF000050AE050EA010208BF704730B511F0004502D5404261EB41014FF4BD
:40140000806404F132045FEA915C3FF4DCAE4FF003025FEADC0C18BF03325FEADC0C18BF033202EBDC02C2F1200300FA03FC20FA02F001FA03FE40EA0E0021FA02F11444AC
:40144000C1E600BF70B54FF0FF0C4CF4E06C1CEA11541DBF1CEA135594EA0C0F95EA0C0F00F0DEF82C4481EA030621EA4C5123EA4C5350EA013518BF52EA033541F48011A4
:4014800043F4801338D0A0FB02CE4FF00005E1FB02E506F00042E0FB03E54FF00006E1FB03569CF0000F18BF4EF0010EA4F1FF04B6F5007F64F5407404D25FEA4E0E6D41BC
:4014C00046EB060642EAC62141EA55514FEAC52040EA5E504FEACE2EB4F1FD0C88BFBCF5E06F1ED8BEF1004F08BF5FEA500E50F1000041EB045170BD06F0004646EA0101EC
:4015000040EA020081EA0301B4EB5C04C2BFD4EB0C0541EA045170BD41F480114FF0000E013C00F3AB8014F1360FDEBF002001F0004170BDC4F10004203C35DA0C341BDCE4
:4015400004F11404C4F1200500FA05F320FA04F001FA05F240EA020001F0004221F0004110EBD37021FA04F642EB06015EEA430E08BF20EAD37070BDC4F10C04C4F12005E1
:4015800000FA04F320FA05F001FA04F240EA020001F0004110EBD37041F100015EEA430E08BF20EAD37070BDC4F1200500FA05F24EEA020E20FA04F301FA05F243EA020349
:4015C00021FA04F001F0004121FA04F220EA020000EBD3705EEA430E08BF20EAD37070BD94F0000F0FD101F00046400041EB010111F4801F08BF013CF7D041EA060195F047
:40160000000F18BF704703F00046520043EB030313F4801F08BF013DF7D043EA0603704794EA0C0F0CEA135518BF95EA0C0F0CD050EA410618BF52EA4306D1D181EA0301BD
:4016400001F000414FF0000070BD50EA410606BF1046194652EA430619D094EA0C0F02D150EA013613D195EA0C0F05D152EA03361CBF104619460AD181EA030101F00041B1
:4016800041F0FE4141F470014FF0000070BD41F0FE4141F4780170BD70B54FF0FF0C4CF4E06C1CEA11541DBF1CEA135594EA0C0F95EA0C0F00F0A7F8A4EB050481EA030ED7
:4016C00052EA03354FEA013100F088804FEA03334FF0805545EA131343EA12634FEA022245EA111545EA10654FEA00260EF000419D4208BF964244F1FD0404F5407402D270
:401700005B084FEA3202B61A65EB03055B084FEA32024FF480104FF4002CB6EB020E75EB030E22BFB61A754640EA0C005B084FEA3202B6EB020E75EB030E22BFB61A75467D
:4017400040EA5C005B084FEA3202B6EB020E75EB030E22BFB61A754640EA9C005B084FEA3202B6EB020E75EB030E22BFB61A754640EADC0055EA060E18D04FEA051545EA9E
:4017800016754FEA06164FEAC30343EA52734FEAC2025FEA1C1CC0D111F4801F0BD141EA00014FF000004FF0004CB6E711F4801F04BF01430020B4F1FD0C88BFBCF5E06F76
:4017C0003FF6AFAEB5EB030C04BFB6EB020C5FEA500C50F1000041EB045170BD0EF0004E4EEA113114EB5C04C2BFD4EB0C0541EA045170BD41F480114FF0000E013C90E6B9
:4018000045EA060E8DE60CEA135594EA0C0F08BF95EA0C0F3FF43BAF94EA0C0F0AD150EA01347FF434AF95EA0C0F7FF425AF104619462CE795EA0C0F06D152EA03353FF483
:40184000FDAE1046194622E750EA410618BF52EA43067FF4C5AE50EA41047FF40DAF52EA43057FF4EBAE12E74FEA410212F5001215D211D56FF47873B3EB625212D94FEADF
:40188000C12343F0004343EA505311F0004F23FA02F018BF404270474FF00000704750EA013005D111F0004008BF6FF0004070474FF00000704700BF014B1868704700BF03
:4018C0004081FF1F0E4B70B51E460E4C0025E41AA410A54204D056F8253098470135F8E700F0ECFC084B094C1E46E41AA4100025A54204D056F8253098470135F8E770BD6A
:40190000C8220000C8220000C8220000D022000010B5431E0A44914204D011F8014B03F8014FF8E710BD00000EB400B54FF402719CB0ADF814106FF00041049107914FF63C
:40194000FF711DAB02900690084853F8042BADF81610006802A9019300F064F8029B00221A701CB05DF804EB03B070474081FF1F2DE9F0478E6882469E420C4691469846EB
:401980003ED88A8912F4906F3AD02568096902236F1A656905EB450595FBF3F57B1C43449D4238BF1D4653050FD5294600F040FB064698B13A462169FFF7AAFFA38923F414
:4019C000906343F08003A38113E02A4600F08EFB064670B92169504600F0DEFA0C23CAF80030A3894FF0FF3043F04003A381BDE8F08726613E44266046466561ED1BA56082
:401A0000464528BF464649463246206800F0A8FAA36800209B1BA36023681E442660BDE8F08700002DE9F04F9DB003938B8980461C060D4616460DD50B695BB9402100F076
:401A4000F7FA2860286118B90C23C8F80030CDE040236B610023099320238DF82930DFF89CB130238DF82A3037463C4614F8013B1BB9B7EB060910D003E0252BF9D027464D
:401A8000F3E74B46324629464046FFF771FF013000F0A780099B4B4409933B78002B00F0A08000234FF0FF3204930793059206938DF853301A930126052221784E4800F0CD
:401AC00041FA671C049B38B14B4A3C46801A06FA00F018430490EFE7D90644BF20228DF853201A0744BF2B228DF8532022782A2A03D0079A00210A200BE0039A111D1268D8
:401B00000391002A10DA524243F00200079204900BE027463B780134303B092B03D800FB02320121F5E701B107923B782E2B1ED17B782A2B0AD1039B02371A1D1B68039291
:401B4000002BB8BF4FF0FF33059310E0002319460593781C0A2407463A780130303A092A03D804FB01210123F5E703B1059103223978224800F0E6F940B14023CBEB0000C2
:401B800003FA00F0049B013718430490397806221B487E1C8DF8281000F0D4F988B1194B33B9039B073323F007030833039314E003AB00932A46144B04A94046AFF300807A
:401BC00007E003AB00932A460F4B04A9404600F093F8B0F1FF3F824603D0099B5344099342E7AB895B0601D4099801E04FF0FF301DB0BDE8F08F00BF862200008C2200006B
:401C00009022000000000000711900002DE9F04791461F460A698B6806469342B8BF1346C9F8003091F843200C46DDF8208012B10133C9F800302368990642BFD9F80030D0
:401C40000233C9F80030256815F0060510D104F1190A07E00123524639463046C04701301AD00135E368D9F800209B1A9D42F1DB94F843302268003318BF012392060FD5E9
:401C8000E118302081F843005A1C94F845102244023382F8431003E04FF0FF30BDE8F08704F1430239463046C0470130F4D02268D9F80050E36802F00602042A08BF5D1B6B
:401CC0002269A3680CBF25EAE57500259342C4BF9B1AED184FF000091A344D4509D00123224639463046C0470130D5D009F10109F3E70020BDE8F0872DE9F04317460A7E3C
:401D000085B06E2A984606460C460C9B01F1430E00F0AE8011D8632A22D009D8002A00F0BB80582A40F0CA8081F84520834955E0642A1ED0692A1CD0C0E0732A00F0B08081
:401D400009D86F2A2ED0702A40F0B8800A6842F020020A603EE0752A24D0782A3AD0ADE01A6801F14205111D1960136884F84230A8E021681A6811F0800F02D0111D196068
:401D800008E011F0400F02F10401196002D0B2F9003000E01368002B3CDA2D225B4284F8432037E021681A6811F0800F02D0111D196007E011F0400F02F10401196001D0C2
:401DC000138800E01368227E5C496F2A14BF0A2208221BE078225A4984F845202268186812F0800F00F104051D6003D1550601D5038800E00368D00744BF42F02002226030
:401E00001BB9226822F0200222601022002084F8430001E049490A226568002DA56008DB206820F0040020602BB9002D7DD175460CE0002B79D07546B3FBF2F002FB1033DB
:401E4000CB5C05F8013D03460028F5D1082A0BD12368DA0708D5236962689A42DEBF302305F8013C05F1FF35C5EB0E0323612EE008681A6810F0800F496903D0101D1860EE
:401E8000136808E010F0400F02F104001860136801D0198000E0196000232361754616E01A68111D1960156800216268284600F049F808B1401B6060636804E004F142057C
:401EC00084F8422001232361002384F84330CDF800803B4603AA21463046FFF797FE013002D14FF0FF3026E023692A4639463046C0470130F5D023689B0710D5002504F1DD
:401F0000190907E001234A4639463046C0470130E7D00135E368039A9B1A9D42F2DBE068039B9842B8BF184605E00B7804F1420584F842308AE705B0BDE8F0839722000063
:401F4000A822000010B5C9B202449042034605D01C7801308C42F8D1184610BD002010BD884210B501EB020301D8421E0BE09842FBD28118D21AD34204D013F8014D01F8A2
:401F8000014DF8E710BD994204D011F8014B02F8014FF8E710BD000038B50546002944D051F8043C0C1F002BB8BFE41800F0D4F81E4A1368114613B96360146030E0A34278
:401FC0000DD92268A018834201BF18685B681218226063600C6023E0A24203D813465A68002AF9D118681918A1420BD12168014458188242196013D1106852680144196086
:402000005A600DE002D90C232B6009E021686018824201BF106852680918216062605C602846BDE8384000F098B838BD7481FF1F70B5CD1C25F0030508350C2D38BF0C2508
:40204000002D064601DBA94202D90C23336046E000F082F8234B1C681A462146A1B10B685B1B0ED40B2B03D90B60CC18CD501EE08C420BBF63684B681360636018BF0C462C
:4020800015E00C464968E9E7174C23681BB9304600F052F820602946304600F04DF8431C18D0C41C24F00304A0420DD12560304600F053F804F10B00231D20F00700C31AE0
:4020C0000ED05A42E25070BD211A304600F034F80130EBD10C233360304600F03EF8002070BD00BF7481FF1F7081FF1FF8B5074615460E4621B91146BDE8F840FFF798BFBD
:402100001AB9FFF749FF2846F8BD00F027F885420ED929463846FFF78BFF044650B131462A46FFF7F5FB31463846FFF735FF01E03046F8BD2046F8BD38B5064C0023054636
:4021400008462360FEF7EAFA431C02D1236803B12B6038BD7C81FF1F7047704751F8040C0028BEBF091851F8043CC018043870470000000052706D3A20200000466C6F7787
:402180003A200000256C75204C706D0028000000300000003800000040000000480000004800000048000000480000006881FF1F6881FF1F6881FF1F6881FF1F6881FF1F63
:4021C0006881FF1F6881FF1F6881FF1F6881FF1F6881FF1F6881FF1F6881FF1F6881FF1F6881FF1F000000481002004808000048100000489000004810010048900100484C
:402200003002004840020048C002004840030048C003004840040048C004004840050048C005004840060048C006004840070048C007004840080048C0080048400900485D
:40224000C0090048000E0808080E0000000A0A0404040000000E0A0E08080000000E0A0C0A0A0000000E080C080E0000000E080E020E0000000E080E020E000000040404DF
:40228000000400004300232D302B2000686C4C006566674546470030313233343536373839414243444546003031323334353637383961626364656600000000F8B500BF78
:4022C000F8BC08BC9E467047E501000005080000F8B500BFF8BC08BC9E467047C1010000F0220000C880FF1F8000000038000000000000008081FF1F00366E01C05D000086
:40230000180000000000E02E0000000000000000000000000000000000000000000000000000000000000000842200000000000000000000000000000000000000000000D1
:4023400000000000000000000000000000000000000000000000000000000000000000000000000000000000E080FF1F0000000000000000000000000000000000000000DF
:40238000000000000000000000000000000000000000000000000000000000000000000000000000000000000000000000000000000000000000000000000000000000001D
:4023C00000000000000000000000000000000000000000000000000000000000000000000000000000000000000000000000000000000000000000000000000000000000DD
:40240000000000000000000000000000000000000000000000000000000000000000000000000000000000000000000000000000000000000000000000000000000000009C
:40244000000000000000000000000000000000000000000000000000000000000000000000000000000000000000000000000000000000000000000000000000000000005C
:020000040003F7
:0200000480007A
:40000000203000000000000003000000000000000000000000000000000000000000000000000000000000000000000000000000000000000000000000000000000000006D
:4000400000000000000000000000000000000000350200000000000000FFFFFF00A00001180000000000000000000400000000014000800040408000400050A8402050A83E
:40008000000000000000000000000000000000000000030000000000000000000000000001000000000000000000000000000000000000000000000000000000000001003B
:4000C00002000100000000000000000000000400350200000000000000FFFFFF00AF0701180080000000000004000404000000014000800040408000400050A8402050A819
:4001000000000000000000000000000000000000000000030000000000000000000000000000000001000000000000000002030000000000000000000000000000000000B6
:400140000101020000020000000000000000011035020000005C200E3BFFFFFF00AF0701180000000700040004040404000000014000800040408000400050A8402050A834
:40018000000000000000000000000000000000000000000000000000000000000000000000000000000000000000000000000000000000000000000000000000000000003F
:4001C00000000000000000002000000000001000000000000000000000000000000000000000000000000000040000000000000100000000000000000000000000000000CA
:400200000000000000000000000000000000000000000000000000000000000000000000000000000000000000000000670000000100000000000000000000000100010054
:40024000000000000000000000000000000000000000000000000000000000000000000000000000000000000000000000000000000200000000000000000000000000007C
:4002800000000000000000000000000000000000000000000000000000000000000000000000000000000000800000000000000000000000000000000000000000000000BE
:4002C00000000000000000000000000000000000000000000000000000000000000000000000000000000000000000000000000000000000000000000000000000000000FE
:40030000000000000000000000000000000000000000000000000000000000000000000000000000000000008000000000000000000000000000000000000000000000003D
:40034000000000000000000000000000000000000000000000000000000000000002000000000000000000000000000000000000000000000000000000000000000000007B
:40038000000000000000000000000000000000000000000000000000000000000000000000000000000000000000000000000000000000000000000000000000000000003D
:4003C0000000000000020000000000000000800000000000000000800000000010088000000000000000000000000000000000000000000000000000000000000000000063
:4004000010200400002800000100000002000000000000000000000000000000000000000000000000000000000000000000000000000000000000800000000000000000DD
:40044000000000000000000000000000000000000000040000000000000000000000000003000000002800000000000000000000000000000000000000000000000000004D
:40048000100010008000000000000000000000006600180000000000000000000000000000000000000000000000000000000000000000000000000000000000000000001E
:4004C0000000000000000000000000000000200200000000000000000000000000006000000000000000008800000000000000000000000000000080000000000200000070
:40050000000000000028000000000000020000060000000003000810000000000000401800000030000008440000000000000000000000000000000000000000000000009C
:4005400000000000000000C00000100000000000000004000000000000000000000000000000000000000000000000000000000000000000000000000000000000000000A7
:400580000000A0000000000000000000100080006000100000007000E0000000000000000000800000000000000000000000000000000000000000000000000000000000CB
:4005C00000000000000000000000000000000000000000000000000000000000000000000000000000000000000000000000000000000000000000000000000000000000FB
:400600000000000000000000000000000000000000000000000000000000000000000000000082000000020000000000000000000000000000000000000000000000000036
:400640000000000000000000000000000000000000000000000000000000000000000400000000000000000000000000000000000000000000000000000000000000000076
:40068000000000000000000000000000000000000000000000000000000000000000000000000000000000000000000000000000000000000000000000000000000000003A
:4006C00000000000000000000000000000000002000000000000000000000000000000000000000000000000000000000000000000000000000000000000000000000000F8
:4007000000000000000000000000000000000000000000000000000000000000000000000000000000000000000000000000000000000000000000000000000000000000B9
:400740000000000000000000000000000000000000000000000000000000000000000000000000000000000100000000000000000000000000000000000000000000000078
:4007800000008000000000000000000000000000000000000000000000000000000000000000000000000000000000000000000000000000000000000000000000000000B9
:4007C00000000000000000000000000000000000000000000000000000000000000000000000000000000001000000000000000000000001000000000000000000000000F7
:4008000000000000000000000000000000000000000000000000000000000000000000000000000000000000000000000000000000000000000000000000000000000000B8
:400840000000000000000000000000000000000000000000000000000000000000000000000000000000000000000000000000000000000000000000000000000000000078
:400880000000000000000000000000000000000000000000000000000000000000000000000000040000020000000000000000000000000000000000000000000000000032
:4008C00000000000000020040000020000000000000000000000000000000000000000000000000000002000000000000000000000000000000000000000000000000000B2
:40090000000000000000000000000000000000000000000000000000C000000000000000000040000000400000000000000000000000000000000000000000000000000077
:400940000000000000000000000000000000000000000000000000000000000000000000000000000000000000000000000000000000200000000000000000000000000057
:400980000000000000000000000000000000000000000000000000000000000000000000000000000000000000000000000000000000000000000000000000000000000037
:4009C00000000000000000000000000000000000000000000000000000000000000000000000000000000000000000000000000000000000000000000000000000000000F7
:400A000000000000000000000000000010000000000000000000000000000000000000000000000000000000000000000000000000000000000000000000000000000000A6
:400A40000030300030000000000B0B0000000000007F7F000000000080000080000000000000000000000000000000000000000000000000000000000000000000000000D2
:400A80000000000000000000000000000000000000000000000000000000000000000000000000000000000000000000000000000000000000000000000000000000000036
:400AC00000000000000000000000000000000000000000000000000000000000000000000000000000000000000000000000000000000000000000000000000000000000F6
:400B000000000000000000000000000000000000000000000000000000000000000000000000000000000000000000000000000000000000000000000000000000000000B5
:400B40000000000000000000000000000000000000000000000000000000000000000000000000000000000000000000000000000000000000000000000000000000000075
:0200000490006A
:0400000000004005B7
:0200000490105A
:04000000BC90ACAF55
:0200000490303A
:0200000042CFED
:0200000490402A
:4000000000000000000000000000000000000000000000000000000000000000000000000000000000000000000000000000000000000000000000000000000000000000C0
:400040000000000000000000000000000000000000000000000000000000000000000000000000000000000000000000000000000000000000000000000000000000000080
:400080000000000000000000000000000000000000000000000000000000000000000000000000000000000000000000000000000000000000000000000000000000000040
:4000C0000000000000000000000000000000000000000000000000000000000000000000000000000000000000000000000000000000000000000000000000000000000000
:0200000490501A
:0C00000000012E12306900012E1F733821
:00000001FF