:400000000080002011000000890B0000890B000080B500AF024A034B1B68136000F0E8FDBC760040FA46004001000000002000400100000000200140010000000048004060
:400040000100000000480140010000000100000008000223000008760800032300001076080004230000287608000523000030760500062300002070050007230000307065
:4000800005000823000060700500FE230000707010000A22000000512000FE220000405180070C220000000080010D220000000880000E220000800A80040F220000800BF5
:4000C0008000102200008016800311220000001880001222000000418000132200000042800014220000004300021522000000448000162200000047800017220000004D83
:400100001000FE2200000050070019230000185207001A230000785208001B230000205B2000FE230000706508001D230000005180001E230000000A80001F230000001473
:40014000800020230000801480002123000000161000222300001050800023230000804D800024230000004C800025230000804C80002623000080478000272300000046BF
:400180008000282300008046800029230000801B80002A230000001580002B230000801580002C230000001780002D230000801780002E230000800980002F230000800702
:4001C000800030230000000B8000312300000049800032230000804980003323000000488000342300008048800035230000804380003623000080428000372300008041D8
:4002000080003823000000408000FE230000804010B5054C237833B9044B13B10448AFF300800123237010BD4881FF1F0000000014280000084B10B51BB108490848AFF356
:4002400000800848036803B910BD074B002BFBD0BDE81040184700BF000000004C81FF1F14280000C880FF1F0000000080B483B000AF786002E07B68013B7B607B68002BFA
:40028000F9D100BF0C37BD4680BC704780B500AF012001F043F9012001F022F93C20FFF7E5FF002001F03AF93C20FFF7DFFF002001F016F93C20FFF7D9FF00BF80BD00BF6E
:4002C00080B500AF002001F029F9012001F008F93C20FFF7CBFF012001F020F93C20FFF7C5FF002001F0FCF83C20FFF7BFFF00BF80BD00BF80B500AF002001F00FF9012089
:4003000001F0EEF83C20FFF7B1FF002001F0E8F83C20FFF7ABFF00BF80BD00BF80B500AF012001F0FBF8012001F0DAF83C20FFF79DFF002001F0D4F83C20FFF797FF00BFFD
:4003400080BD00BF80B582B000AF012001F0E6F8012001F0C5F81E20FFF788FF01F0FCF80346FB711E20FFF781FF002001F0B8F83C20FFF77BFFFB79012B01D1002300E0A1
:40038000012318460837BD4680BD00BF80B584B000AF0346FB710023FB730FE0FA79FB7B02FA03F303F08003002B02D0FFF7B6FF01E0FFF79FFFFB7B0133FB73FB7B072B02
:4003C000ECD900BF1037BD4680BD00BF80B582B000AF0023FB710023BB7123E0012001F09DF8012001F07CF80520FFF73FFF01F0B3F803467B710520FFF738FF002001F082
:400400006FF87B79012B07D1FB795B00FB71FB7943F00103FB7102E0FB795B00FB71BB790133BB71BB79072BD8D9FB7918460837BD4680BD80B584B000AF03460A46FB71D5
:400440001346BB710123FB60FFF720FFDA20FFF79DFFFFF777FFF860FB791846FFF796FFFFF770FFF860BB791846FFF78FFFFFF769FFF860FFF724FF00BF1037BD4680BDCE
:4004800080B584B000AF0346FB710123FB60FFF7FDFEDA20FFF77AFFFFF754FFF860FB791846FFF773FFFFF74DFFF860FFF7EEFEDB20FFF76BFFFFF745FFF860FFF786FFD7
:4004C0000346FB72FFF73EFFF860FFF7F9FEFB7A18461037BD4680BDB0B594B000AF0023BB6400237B64002387F843300023FB630023BB6307F1180300221A605A609A609E
:40050000C3F80B2062B600F011FE00F0E9FE00F047FC01F081F862B6A520FFF7B1FF034687F8373097F8373023F0020387F8373097F837301946A520FFF77CFF0A2130209E
:40054000FFF778FF00BF3020FFF79AFF034603F00803002BF7DC0620FFF792FF034687F836300720FFF78CFF034687F835300820FFF786FF034687F8343097F836301A029B
:4005800097F8353013441A0297F8343013443B633B6BB3F5000F13DD3B6B03F17F43184601F03CFA4FF00002474B01F09DFA02460B461046194601F0A9FC0346FB640FE0E8
:4005C000386B01F02BFA4FF000023F4B01F08CFA02460B461046194601F098FC0346FB64FB6C002B0DDAF86C01F018FA02460B46144623F000452046294601F087FC0346C8
:40060000FB644FF47A7000F0E9FE07F11803FA6C2E49184601F0DAFC0021002000F0D2FB2B4800F007FC0A21002000F0CBFB07F11803184600F0FEFB002001F01BF841F22C
:40064000883000F0CBFE01F023F8024613465B0013449B00FB620021012000F0B3FB1D4800F0E8FB0521012000F0ACFBFB6A1A4AA2FB0323DB08184601F0C0F910A3D3E9D6
:40068000002301F031FA02460B461046194601F03DFC0346BB623B4600221A605A609A60C3F80B203B46BA6A0C49184601F08EFC3B46184600F0BEFB2EE700BFAFF3008015
:4006C0007B14AE47E17A643F0000703F182800002428000030280000ABAAAAAA3828000080B584B000AFF860B9607A607A68B968F86801F05FFC00BF1037BD4680BD00BFC5
:4007000080B483B000AF0346FB71FEE780B483B000AF434B00221A60424B10221A70424B01221A70414B00221A70414B4FF4E0721A80404B01221A703F4B03221A703F4B58
:400740003F4A92B21A803F4B47F608021A803E4B00221A803D4B4FF480421A803C4B09221A703C4B0B221A703B4B18221A703B4B1C221A70BFF35F8F394B01221A70BFF3A6
:400780005F8F00BF2A4B1B889BB2002BFAD100237B600DE07B68DA00324B13441946324A7B6852F823309BB20B807B6801337B607B68372BEED9BFF35F8F294B01221A70C3
:4007C000BFF35F8F00BF294B1B78DBB203F00103002BF8D100BF264B1B78DBB203F00103002BF8D100BF234B1B78DBB203F00103002BF8D100BF204B1B78DBB203F0010367
:40080000002BF8D100BF1D4B1B78DBB203F00103002BF8D100BF0C37BD4680BC704700BF6881FF1F00760040107000401970004000780040027800400378004004780040AC
:400840005000000006780040047600400676004029700040397000406970004079700040147000400C78004040280000187000402870004038700040687000407870004038
:4008800080B582B000AF3D4B00221A803C4B19221A7008223B493C48FFF722FF3B4B02221A704FF0402308221A70394B02221A70384B394A1278D2B21A70384B40F61552CF
:4008C0001A80374B41F251221A800023FB7019237B6014E0FB785B00DAB2324B1B78DBB203F00103DBB21343DBB203F00303FB704FF4F07000F014FF7B68013B7B607B68BE
:40090000002B02D0FB78032BE4D17B68002B02D10320FFF7F5FE244B4FF480721A80224B07221A70214B00221A70214B48221A701D4B00221A701F4B02221A701E4B0422E6
:400940001A701E4A1D4B1B78DBB243F00103DBB213701B4A1A4B1B78DBB243F00203DBB21370184A174B1B78DBB263F07F03DBB2137000BF0837BD4680BD00BF80400040BE
:4009800082400040040E0048004100400043004000420040A14600400B010049224200402042004025420040044000400640004008400040014000400B400040A243004029
:4009C000A1430040A043004080B582B000AF1F4B1B78FB711E4B1B78BB711E4B1B787B711D4AFB7903F00703DBB213701B4AFB791B09DBB21370164ABB7943F00303DBB2D2
:400A00001370144A7B7943F00303DBB21370144B20221A70134B40221A70134B40221A70124B02221A70124B20221A700A2000F0F7FC084A7B791370054ABB7913700D4B71
:400A400066221A7000BF0837BD4680BDCF010049F8460040F94600406E5800406F5800406D5100400159004003590040205B0040235B00407658004080B500AF72B6FFF746
:400A800045FE2D4A2C4B1B78DBB243F00203DBB213702A4A294B1B78DBB243F00203DBB21370274A264B1B78DBB243F04003DBB21370244A234B1B78DBB243F01003DBB2F6
:400AC0001370082220492148FFF70AFE082220492048FFF705FE0A221F492048FFF700FE08221F491F48FFF7FBFD08221E491F48FFF7F6FD08221E491E48FFF7F1FD1E4A8A
:400B00001D4B1B78DBB243F00803DBB213701B4B61221A70FFF7B4FE184BC1221A70184B01221A70FFF750FF0E2205491548FFF7D7FD00BF80BD00BF035001401350014007
:400B4000A0430040C2430040D00D0048C2510040D80D0048F2510040E00D004810510040EC0D004822510040F40D004832510040FC0D00486251004022430040004800409E
:400B800004000840B043004080B500AF01F0E6F903461B680C2B00D1FEE7FEE780B584B000AF7860104B1A687B6813441A460F4BD31AB3F5805F09DC0B4B1B68FB600A4BC1
:400BC0001A687B681344084A136007E001F0C6F902460C2313604FF0FF33FB60FB6818461037BD4680BD00BFCC80FF1F8881FF1F80B586B000AF224B7B61224B3B61204BB8
:400C00007B6135E03B691B68FB603B695B68BB603B699B683B6000237B600CE0FB681A68BB681A60BB680433BB60FB680433FB607B6804337B607A683B689A42EED13B69EE
:400C4000DB683B6000237B6008E0BB6800221A60BB680433BB607B6804337B607A683B689A42F2D13B6910333B617B69013B7B617B69002BC6D101F077F9FFF72DFCFEE7D9
:400C8000010000007C29000080B582B000AF184B184A1A60184A184B1B6843F40073136000237B600FE07B68032B04D8134A7B6852F8233000E0124B12497A6841F8223018
:400CC0007B6801337B607B682F2BECD90E4B1B78DAB20E4B1A700E4B0A4A1A60FFF7CCFE0C4B00221A6000BF0837BD4680BD00BF0CED00E00004FA0514ED00E00000000011
:400D0000890B00000080FF1FBC760040C480FF1F08ED00E0C080FF1F80B500AF282000F05DFB032000F0D0F9052000F057FB032000F0CAF90F2000F051FB032000F0C4F9B2
:400D4000012000F04BFB022000F0BEF9052000F045FB062000F0A6F80E2000F0A3F82C2000F0A0F8082000F09DF8012000F09AF80C2000F097F8032000F094F8052000F00E
:400D80002DFB00BF80BD00BF80B500AF0C2000F089F8024B01221A7000BF80BD6C81FF1F80B500AF064B1B78002B04D1FFF7B4FF034B01221A70FFF7E7FF00BF80BD00BFCB
:400DC0006D81FF1F80B582B000AF03460A46FB711346BB71FB79032B26D801A252F823F0F10D0000FF0D00000D0E00001B0E0000BB79803BDBB2184600F054F815E0BB791A
:400E0000403BDBB2184600F04DF80EE0BB796C3BDBB2184600F046F807E0BB792C3BDBB2184600F03FF800E000BF00BF0837BD4680BD00BF80B584B000AF78600123FB7383
:400E40007B681B78BB730BE0BB7B184600F010F8FB7B7A6813441B78BB73FB7B0133FB73BB7B002BF0D100BF1037BD4680BD00BF80B584B000AF0346FB7100F02DF8FB7952
:400E80001B09FB73FB7B184600F0E2F8FB7903F00F03FB73FB7B184600F0DAF800BF1037BD4680BD80B584B000AF0346FB7100F013F8FB791B09FB73FB7B184600F004F9B0
:400EC000FB7903F00F03FB73FB7B184600F0FCF800BF1037BD4680BD80B582B000AF4FF4CA737B60554A554B1B78DBB223F07F03DBB21370524B1B78DBB223F00F03FB704B
:400F00004F4AFB7843F00F03DBB213704D4B1B78DBB223F00F03FB704A4AFB7813704A4B1B78DBB223F00F03FB70474AFB781370424A424B1B78DBB223F02003DBB2137033
:400F40003E4A3E4B1B78DBB243F04003DBB21370002000F065FA394A384B1B78DBB243F01003DBB21370012000F05AFA374B1B78FB70324A314B1B78DBB223F01003DBB21F
:400F80001370002000F04CFAFB7803F00803FB702A4A2A4B1B78DBB243F01003DBB21370012000F03DFA254A244B1B78DBB223F01003DBB21370FB78002B02D10A2000F016
:400FC0002FFA7B68013B7B60FB78002B02D07B68002BBDD1194A194B1B78DBB223F04003DBB21370154A154B1B78DBB223F07F03DBB21370124A124B1B78DBB223F00F03F3
:40100000DBB213700F4B1B78DBB223F00F03FB700C4AFB7843F00F03DBB213700A4B1B78DBB223F00F03FB70074AFB7843F00F03DBB2137000BF0837BD4680BD205100406B
:401040002251004023510040245100402151004080B582B000AF0346FB711A4A194B1B78DBB243F02003DBB21370164A154B1B78DBB223F04003DBB21370002000F0D0F96A
:40108000104A104B1B78DBB223F00F03DBB213700C490C4B1B78DAB2FB791343DBB243F01003DBB20B70012000F0BAF9054A054B1B78DBB223F01003DBB2137000BF0837FF
:4010C000BD4680BD2051004080B582B000AF0346FB71154A144B1B78DBB223F06003DBB21370114A104B1B78DBB223F00F03DBB213700D490C4B1B78DAB2FB791343DBB2A2
:4011000043F01003DBB20B70012000F089F9064A054B1B78DBB223F01003DBB2137000BF0837BD4680BD00BF2051004080B500AF064B1B78002B04D100F00AF8034B0122FF
:401140001A7000F029F800BF80BD00BF6E81FF1F80B500AF102000F01BF90721012000F09BF90A49012000F06FF9094A084B1B78DBB243F00603DBB213700C2000F086F8AF
:40118000044B00221A8000BF80BD00BF85130000015900408081FF1F80B582B000AF00F0C7FA0346FB712E4A2D4B1B78DBB243F00103DBB213702B4A2A4B1B78DBB243F008
:4011C0000103DBB21370284A274B1B78DBB243F00203DBB21370254A244B1B78DBB243F00203DBB21370224B1B78BB71BB7943F00203BB71BB7943F00103BB711C4ABB7954
:4012000013701C4B18221A701B4A1B4B1B78DBB243F04003DBB21370174A174B1B78DBB223F00303DBB21370144BC8221A70144B02221A70134A134B1B78DBB243F008038A
:40124000DBB213700A2000F0EBF80F4B02221A60FB79184600F070FA00BF0837BD4680BDAB430040BB430040A1430040B143004003590040065900400559004000590040C9
:4012800014460040275B004080E200E080B584B000AF0346FB71FB790A2B07D00C2B02D0082B06D008E0C223FB730BE08223FB7308E04223FB7305E0C223FB73002000F0F5
:4012C00081F800BF054AFB7B1370FB79184600F017F800BF1037BD4680BD00BF0259004080B400AF054A054B1B78DBB243F00103DBB2137000BFBD4680BC704700590040C6
:4013000080B584B000AF0346FB71FB790A2B08D00C2B02D0082B08D00BE04FF48053FB600DE04FF48063FB6009E04FF48073FB6005E00023FB60002000F044F800BF0D4B41
:4013400000221A80FB6842F2107202FB03F303F27263094A82FB03121A44D212DB17D31A064A1360064B00221A8000BF1037BD4680BD00BF7E81FF1FEF09E09E7881FF1F56
:401380007C81FF1F80B400AF00BFBD4680BC704780B483B000AF0346FB710949084B1B78DBB25AB297F9073023F007035BB213435BB2DBB20B7000BF0C37BD4680BC70478A
:4013C0000641004080B483B000AF0346FB7101BE00BF0C37BD4680BC704700BF80B582B000AF786008E00C4B1B68184600F098F97B68A3F500437B607B68B3F5004FF2D859
:40140000064B1B687A6802FB03F3184600F088F900BF0837BD4680BDDC80FF1FD480FF1F80B582B000AF0346FB80FB88054A127802FB03F3184600F073F900BF0837BD4626
:4014400080BD00BFD880FF1F80B584B000AF03463960FB710F4B1B68FB60FB791F2B02D90020FFF7AFFFFB7903F01F0310339B00FA6813441B68BB60FB7903F01F03103375
:401480009B00FA6813443A681A60BB6818461037BD4680BD08ED00E080B582B000AF03460A46FB711346BB71BB79072B02D90020FFF788FFFB791F2B02D90020FFF782FF31
:4014C000FB7903F01F0303F1604303F56443BA795201D2B21A7000BF0837BD4680BD00BF80B485B000AF0346FB710B4B1B78DBB223F00203FB730849FB795B00DBB203F033
:401500000203DAB2FB7B1343DBB20B7000BF1437BD4680BC704700BF3051004080B485B000AF0346FB710B4B1B78DBB223F00403FB730849FB799B00DBB203F00403DAB288
:40154000FB7B1343DBB20B7000BF1437BD4680BC704700BF3051004080B400AF054B1B78DBB203F004039B08DBB21846BD4680BC704700BF3151004080B582B000AF1C4B48
:401580001B78DBB223F00703FB71194AFB7943F00103DBB21370164B1B78DBB223F00303FB71134AFB79137000F0AAF8642000F08BF8002000F05EF80C2000F03FF800F0D8
:4015C0004DF8322000F08EF800F0B2F80346BB71084A084B1B78DBB243F01003DBB21370BB79184600F0A8F800BF0837BD4680BD756500409665004080B400AF054A054B7D
:401600001B78DBB263F07F03DBB2137000BFBD4680BC70477565004080B500AF064B1B78002B04D1FFF7A8FF034B01221A70FFF7E3FF00BF80BD00BF6F81FF1F80B483B06E
:4016400000AF0346FB71044AFB79137000BF0C37BD4680BC704700BF8665004080B400AF034B1B78DBB21846BD4680BC704700BF6665004080B582B000AF78607968034856
:4016800000F05EF800BF0837BD4680BD0465004080B400AF044B1B78044B1B6823F07F431846BD4680BC7047046500404465004080B400AF034B1B6823F07F431846BD46C1
:4016C00080BC70474465004080B582B000AF78607968034800F034F800BF0837BD4680BD2465004080B582B000AF78607968034800F026F800BF0837BD4680BD3465004092
:4017000080B500AF01E0FFF7D3FFFFF7A7FF034603F04003002BF6D100BF80BD000000000230800803D000BF01380046FCD17047EFF3108072B6704780F31088704700BFF2
:4017400080B485B000AF786039607B68FB603B68DAB2FB681A70FB6801333A68120AD2B21A70FB6802333A68120CD2B21A7000BF1437BD4680BC704781F0004102E000BF6A
:4017800083F0004330B54FEA41044FEA430594EA050F08BF90EA020F1FBF54EA000C55EA020C7FEA645C7FEA655C00F0E2804FEA5454D4EB5555B8BF6D420CDD2C4480EA5E
:4017C000020281EA030382EA000083EA010180EA020281EA0303362D88BF30BD11F0004F4FEA01314FF4801C4CEA113102D0404261EB410113F0004F4FEA03334CEA1333F2
:4018000002D0524263EB430394EA050F00F0A780A4F10104D5F1200E0DDB02FA0EFC22FA05F2801841F1000103FA0EF2801843FA05F359410EE0A5F120050EF1200E012A46
:4018400003FA0EFC28BF4CF0020C43FA05F3C01851EBE37101F0004507D54FF0000EDCF1000C7EEB00006EEB0101B1F5801F1BD3B1F5001F0CD349085FEA30004FEA3C0C75
:4018800004F101044FEA445212F5800F80F09A80BCF1004F08BF5FEA500C50F1000041EB045141EA050130BD5FEA4C0C404141EB010111F4801FA4F10104E9D191F0000F1F
:4018C00004BF01460020B1FA81F308BF2033A3F10B03B3F120020CDA0C3208DD02F1140CC2F10C0201FA0CF021FA02F10CE002F11402D8BFC2F1200C01FA02F120FA0CFCC0
:40190000DCBF41EA0C019040E41AA2BF01EB0451294330BD6FEA04041F3C1CDA0C340EDC04F11404C4F1200220FA04F001FA02F340EA030021FA04F345EA030130BDC4F139
:401940000C04C4F1200220FA02F001FA04F340EA0300294630BD21FA04F0294630BD94F0000F83F4801306BF81F480110134013D4EE77FEA645C18BF7FEA655C29D094EADD
:40198000050F08BF90EA020F05D054EA000C04BF1946104630BD91EA030F1EBF0021002030BD5FEA545C05D14000494128BF41F0004130BD14F580043CBF01F5801130BDCA
:4019C00001F0004545F0FE4141F470014FF0000030BD7FEA645C1ABF194610467FEA655C1CBF0B46024650EA013406BF52EA033591EA030F41F4002130BD00BF90F0000F50
:401A000004BF0021704730B54FF4806404F132044FF000054FF0000150E700BF90F0000F04BF0021704730B54FF4806404F1320410F0004548BF40424FF000013EE700BF07
:401A400042004FEAE2014FEA31014FEA02701FBF12F07F4393F07F4F81F06051704792F0000F14BF93F07F4F704730B54FF4607401F0004521F0004120E700BF50EA010233
:401A800008BF704730B54FF000050AE050EA010208BF704730B511F0004502D5404261EB41014FF4806404F132045FEA915C3FF4DCAE4FF003025FEADC0C18BF03325FEAB9
:401AC000DC0C18BF033202EBDC02C2F1200300FA03FC20FA02F001FA03FE40EA0E0021FA02F11444C1E600BF70B54FF0FF0C4CF4E06C1CEA11541DBF1CEA135594EA0C0F03
:401B000095EA0C0F00F0DEF82C4481EA030621EA4C5123EA4C5350EA013518BF52EA033541F4801143F4801338D0A0FB02CE4FF00005E1FB02E506F00042E0FB03E54FF00E
:401B40000006E1FB03569CF0000F18BF4EF0010EA4F1FF04B6F5007F64F5407404D25FEA4E0E6D4146EB060642EAC62141EA55514FEAC52040EA5E504FEACE2EB4F1FD0C79
:401B800088BFBCF5E06F1ED8BEF1004F08BF5FEA500E50F1000041EB045170BD06F0004646EA010140EA020081EA0301B4EB5C04C2BFD4EB0C0541EA045170BD41F48011C1
:401BC0004FF0000E013C00F3AB8014F1360FDEBF002001F0004170BDC4F10004203C35DA0C341BDC04F11404C4F1200500FA05F320FA04F001FA05F240EA020001F0004244
:401C000021F0004110EBD37021FA04F642EB06015EEA430E08BF20EAD37070BDC4F10C04C4F1200500FA04F320FA05F001FA04F240EA020001F0004110EBD37041F1000192
:401C40005EEA430E08BF20EAD37070BDC4F1200500FA05F24EEA020E20FA04F301FA05F243EA020321FA04F001F0004121FA04F220EA020000EBD3705EEA430E08BF20EA4C
:401C8000D37070BD94F0000F0FD101F00046400041EB010111F4801F08BF013CF7D041EA060195F0000F18BF704703F00046520043EB030313F4801F08BF013DF7D043EA7B
:401CC0000603704794EA0C0F0CEA135518BF95EA0C0F0CD050EA410618BF52EA4306D1D181EA030101F000414FF0000070BD50EA410606BF1046194652EA430619D094EA6D
:401D00000C0F02D150EA013613D195EA0C0F05D152EA03361CBF104619460AD181EA030101F0004141F0FE4141F470014FF0000070BD41F0FE4141F4780170BD70B54FF03E
:401D4000FF0C4CF4E06C1CEA11541DBF1CEA135594EA0C0F95EA0C0F00F0A7F8A4EB050481EA030E52EA03354FEA013100F088804FEA03334FF0805545EA131343EA1263F0
:401D80004FEA022245EA111545EA10654FEA00260EF000419D4208BF964244F1FD0404F5407402D25B084FEA3202B61A65EB03055B084FEA32024FF480104FF4002CB6EB4F
:401DC000020E75EB030E22BFB61A754640EA0C005B084FEA3202B6EB020E75EB030E22BFB61A754640EA5C005B084FEA3202B6EB020E75EB030E22BFB61A754640EA9C00B8
:401E00005B084FEA3202B6EB020E75EB030E22BFB61A754640EADC0055EA060E18D04FEA051545EA16754FEA06164FEAC30343EA52734FEAC2025FEA1C1CC0D111F4801FFD
:401E40000BD141EA00014FF000004FF0004CB6E711F4801F04BF01430020B4F1FD0C88BFBCF5E06F3FF6AFAEB5EB030C04BFB6EB020C5FEA500C50F1000041EB045170BDEC
:401E80000EF0004E4EEA113114EB5C04C2BFD4EB0C0541EA045170BD41F480114FF0000E013C90E645EA060E8DE60CEA135594EA0C0F08BF95EA0C0F3FF43BAF94EA0C0F75
:401EC0000AD150EA01347FF434AF95EA0C0F7FF425AF104619462CE795EA0C0F06D152EA03353FF4FDAE1046194622E750EA410618BF52EA43067FF4C5AE50EA41047FF463
:401F00000DAF52EA43057FF4EBAE12E74FEA410212F5001215D211D56FF47873B3EB625212D94FEAC12343F0004343EA505311F0004F23FA02F018BF404270474FF000005E
:401F4000704750EA013005D111F0004008BF6FF0004070474FF00000704700BF014B1868704700BF4081FF1F0E4B70B51E460E4C0025E41AA410A54204D056F825309847E5
:401F80000135F8E700F0E8FC084B094C1E46E41AA4100025A54204D056F8253098470135F8E770BD6429000064290000642900006C29000010B5431E0A44914204D011F876
:401FC000014B03F8014FF8E710BD00000EB400B54FF402719CB0ADF814106FF00041049107914FF6FF711DAB02900690084853F8042BADF81610006802A9019300F064F862
:40200000029B00221A701CB05DF804EB03B070474081FF1F2DE9F0478E6882469E420C46914698463ED88A8912F4906F3AD02568096902236F1A656905EB450595FBF3F5A7
:402040007B1C43449D4238BF1D4653050FD5294600F040FB064698B13A462169FFF7AAFFA38923F4906343F08003A38113E02A4600F08EFB064670B92169504600F0DEFAAC
:402080000C23CAF80030A3894FF0FF3043F04003A381BDE8F08726613E44266046466561ED1BA560464528BF464649463246206800F0A8FAA36800209B1BA36023681E44D1
:4020C0002660BDE8F08700002DE9F04F9DB003938B8980461C060D4616460DD50B695BB9402100F0F7FA2860286118B90C23C8F80030CDE040236B610023099320238DF84B
:402100002930DFF89CB130238DF82A3037463C4614F8013B1BB9B7EB060910D003E0252BF9D02746F3E74B46324629464046FFF771FF013000F0A780099B4B4409933B78D3
:40214000002B00F0A08000234FF0FF3204930793059206938DF853301A930126052221784E4800F041FA671C049B38B14B4A3C46801A06FA00F018430490EFE7D90644BF80
:4021800020228DF853201A0744BF2B228DF8532022782A2A03D0079A00210A200BE0039A111D12680391002A10DA524243F00200079204900BE027463B780134303B092B22
:4021C00003D800FB02320121F5E701B107923B782E2B1ED17B782A2B0AD1039B02371A1D1B680392002BB8BF4FF0FF33059310E0002319460593781C0A2407463A780130A1
:40220000303A092A03D804FB01210123F5E703B1059103223978224800F0E6F940B14023CBEB000003FA00F0049B013718430490397806221B487E1C8DF8281000F0D4F99F
:4022400088B1194B33B9039B073323F007030833039314E003AB00932A46144B04A94046AFF3008007E003AB00932A460F4B04A9404600F093F8B0F1FF3F824603D0099BF8
:402280005344099342E7AB895B0601D4099801E04FF0FF301DB0BDE8F08F00BF22290000282900002C29000000000000152000002DE9F04791461F460A698B680646934282
:4022C000B8BF1346C9F8003091F843200C46DDF8208012B10133C9F800302368990642BFD9F800300233C9F80030256815F0060510D104F1190A07E0012352463946304602
:40230000C04701301AD00135E368D9F800209B1A9D42F1DB94F843302268003318BF012392060FD5E118302081F843005A1C94F845102244023382F8431003E04FF0FF3061
:40234000BDE8F08704F1430239463046C0470130F4D02268D9F80050E36802F00602042A08BF5D1B2269A3680CBF25EAE57500259342C4BF9B1AED184FF000091A344D4590
:4023800009D00123224639463046C0470130D5D009F10109F3E70020BDE8F0872DE9F04317460A7E85B06E2A984606460C460C9B01F1430E00F0AE8011D8632A22D009D804
:4023C000002A00F0BB80582A40F0CA8081F84520834955E0642A1ED0692A1CD0C0E0732A00F0B08009D86F2A2ED0702A40F0B8800A6842F020020A603EE0752A24D0782A58
:402400003AD0ADE01A6801F14205111D1960136884F84230A8E021681A6811F0800F02D0111D196008E011F0400F02F10401196002D0B2F9003000E01368002B3CDA2D225D
:402440005B4284F8432037E021681A6811F0800F02D0111D196007E011F0400F02F10401196001D0138800E01368227E5C496F2A14BF0A2208221BE078225A4984F8452026
:402480002268186812F0800F00F104051D6003D1550601D5038800E00368D00744BF42F0200222601BB9226822F0200222601022002084F8430001E049490A226568002DC1
:4024C000A56008DB206820F0040020602BB9002D7DD175460CE0002B79D07546B3FBF2F002FB1033CB5C05F8013D03460028F5D1082A0BD12368DA0708D5236962689A42B1
:40250000DEBF302305F8013C05F1FF35C5EB0E0323612EE008681A6810F0800F496903D0101D1860136808E010F0400F02F104001860136801D0198000E019600023236143
:40254000754616E01A68111D1960156800216268284600F049F808B1401B6060636804E004F1420584F8422001232361002384F84330CDF800803B4603AA21463046FFF7DD
:4025800097FE013002D14FF0FF3026E023692A4639463046C0470130F5D023689B0710D5002504F1190907E001234A4639463046C0470130E7D00135E368039A9B1A9D42A1
:4025C000F2DBE068039B9842B8BF184605E00B7804F1420584F842308AE705B0BDE8F083332900004429000010B5C9B202449042034605D01C7801308C42F8D1184610BDE3
:40260000002010BD884210B501EB020301D8421E0BE09842FBD28118D21AD34204D013F8014D01F8014DF8E710BD994204D011F8014B02F8014FF8E710BD000038B5054676
:40264000002944D051F8043C0C1F002BB8BFE41800F0D4F81E4A1368114613B96360146030E0A3420DD92268A018834201BF18685B681218226063600C6023E0A24203D850
:4026800013465A68002AF9D118681918A1420BD12168014458188242196013D110685268014419605A600DE002D90C232B6009E021686018824201BF1068526809182160CE
:4026C00062605C602846BDE8384000F098B838BD7481FF1F70B5CD1C25F0030508350C2D38BF0C25002D064601DBA94202D90C23336046E000F082F8234B1C681A4621469A
:40270000A1B10B685B1B0ED40B2B03D90B60CC18CD501EE08C420BBF63684B681360636018BF0C4615E00C464968E9E7174C23681BB9304600F052F820602946304600F0FC
:402740004DF8431C18D0C41C24F00304A0420DD12560304600F053F804F10B00231D20F00700C31A0ED05A42E25070BD211A304600F034F80130EBD10C233360304600F0ED
:402780003EF8002070BD00BF7481FF1F7081FF1FF8B5074615460E4621B91146BDE8F840FFF798BF1AB9FFF749FF2846F8BD00F027F885420ED929463846FFF78BFF044609
:4027C00050B131462A46FFF7F5FB31463846FFF735FF01E03046F8BD2046F8BD38B5064C0023054608462360FEF7D8F9431C02D1236803B12B6038BD8481FF1F70477047FF
:4028000051F8040C0028BEBF091851F8043CC018043870470000000025642050617363616C000000507265737375726500000000466C6F7720000000202564204C706D0025
:4028400028000000300000003800000040000000480000004800000048000000480000006881FF1F6881FF1F6881FF1F6881FF1F6881FF1F6881FF1F6881FF1F6881FF1F30
:402880006881FF1F6881FF1F6881FF1F6881FF1F6881FF1F6881FF1F6881FF1F000000480800004818000048200200481000004820000048A000004820010048A00100488B
:4028C0004002004850020048D002004850030048D003004850040048D004004850050048D005004850060048D006004850070048D007004850080048D00800485009004897
:40290000D0090048500A0048D00A0048500B0048D00B0048500C0048D00C0048500D00484300232D302B2000686C4C0065666745464700303132333435363738394142437A
:40294000444546003031323334353637383961626364656600000000F8B500BFF8BC08BC9E46704735020000890C0000F8B500BFF8BC08BC9E467047110200009029000090
:40298000C880FF1F800000004000000000000000000000008881FF1F00512502A08C000024000000000050460000000000000000000000000000000000000000000000006C
:4029C000000000000000000020290000000000000000000000000000000000000000000000000000000000000000000000000000000000000000000000000000000000008E
:402A00000000000000000000E080FF1F0000000000000000000000000000000000000000000000000000000000000000000000000000000000000000000000000000000018
:402A40000000000000000000000000000000000000000000000000000000000000000000000000000000000000000000000000000000000000000000000000000000000056
:402A80000000000000000000000000000000000000000000000000000000000000000000000000000000000000000000000000000000000000000000000000000000000016
:402AC00000000000000000000000000000000000000000000000000000000000000000000000000000000000000000000000000000000000000000000000000000000000D6
:402B00000000000000000000000000000000000000000000000000000000000000000000000000000000000000000000000000000000000000000000000000000000000095
:020000040003F7
:0200000480007A
:40000000001000000000000000040000000000000F00000000000000000000000000002100000000000000000000000000000000000000000000000000000000000000007C
:4000400000000000000000000000000000000000000000000000000000800000000000400000000000000000000000000000000000000000000000000004000000000001BB
:400080000000000000000000000000000000000000000000000000000000000000000000000000000000000000000000000000000000000000000000000000000000000040
:4000C0000000000000000000000000000000000000000000000000000000000000000000310600000000000000FFFFFF00A00001180000000000000000000400000000010E
:400100004000800040408000400050A8402050A80000000000000000000000000000000008000000000003000000000000000C000100000000000000000000000000000057
:400140000000000000000000000000000000010002000100080004000000000000001400310600000000000000FFFFFF00AF070118008000000000000400040400000001CB
:400180004000800040408000400050A8402050A8000000000000000000000000000000000000000000000000000000000000000000000000010000000000000000000300EB
:4001C000000000000000000000000000000000000100020000000000000000000000010031060000005C200E3BFFFFFF00AF0701180000000700040004000404000000011B
:400200004000800040408000400050A8402050A800000000000000000000000000000000000000000000000000000000000000000000000000006700000000000000000007
:40024000010000000000000000000100000000000000000000000000000000000020000000000000000000000000000000000000002000000000000000000000000000003C
:40028000000000000000000000000000000000000000000000000000000000000000000000000000000000000000000000000000000000000000020000000000000000003C
:4002C00000000000000000000000000000000000000000000000000000200000000000000000000000000000000000000000000000000000000000000000000000000000DE
:4003000000000000000000000000000000000000000000000000000000000000000000000000000000000000000000000000000000000000000000000000000000000000BD
:40034000000000000000000000000000000000000000000000000000000000000000000000000000000000000000000000000000000000000000000000000000000000007D
:40038000000000000000000000000000000000000000020000000000000000000000000000000000000000000000000000000000000000000000000000000000000000003B
:4003C00000000000000000000000000000000000000000000000000000000000000000000000000000000000000000000000000000000000000000000000400000000000BD
:4004000000000000000000000000000000000000000000000000000000000000000000000000000000000000000000000000000000000000000000000000000000000000BC
:4004400000000000000000000000000000000000000000000000000000000000000000000000000000000000000080000000000000000000000000000000000000000000FC
:40048000000000000000000000000000000000000000000000000000000000000000000000000000000000000000000000000000000000000000000000000000000000003C
:4004C00000000000000000000000000000000000000000000000000000000000000000000000000000000000000000000000000000000000000000000000000000000000FC
:4005000000000000000000000000000000000000000000000000080000000000000000000000000000000000000000000000000000000000000000000000000000000000B3
:40054000000000000000000000000000000000000000000000000000000000000000000000000000000000000000000000000000000000000000000000000000000000007B
:4005800000000000000000000000000000000000000000000000000000000000000000000000000000000000000000000000000000000000000040000000000000000000FB
:4005C0000000000000000000000000000000000000000000050002000000000000008000000000000000008000000000110888000000000000000000000000000000000053
:40060000000000000000000000000000000000001000020000080200002000000020000000000000000000000000000000000000000000000000000000000000000000005E
:4006400000000000000000800000000000000000000000000000000000000000050000000000000000000000002002000000000000000000000804000000000000001000B7
:4006800000000000000000000000000000000000B00010008000000000000000000000005A002400000000000000000000000000000000000000100000000000000000006C
:4006C0000000000000000000000000000000000000000000000000000000000000002002000000000000000000000000000060000000000000000000000000000000000078
:4007000000000000000000000000000000000000000000000008020000000000002000060000000000000A10000000000000481000000030000208040000000000000000D9
:400740000000000000000000000000000000000000000000000200000000000000000000000000000000000000200000000000000000000000000000000000000000000057
:40078000000000000000000000000000000000000000A0000000000000000000000000005000200000007000E00000000000000000000000000000000000000000000000D9
:4007C00000000000000000000000000000000000008000000000000000000000000000000000000000000000000000000000000000800000000000000000000000000000F9
:4008000000000000000000000000000000000000000000000000000000000000000000000000000000000000000000000000000000000000000000000000000000000100B7
:400840000000000000000000000000000000000000200000000000000000000000000000000000000000000000000000000000000000000000000000000000000000000058
:400880000000000000000000000000000000000000000000000000000000000000000000000000000000000000000000000000000000000000000100000000000000010036
:4008C0000000000000000000000000000000000000000000000000000000000000000000000000000000000000000000000000000080000000000000000000000000000078
:4009000000000000000000000000000000000000000000000000000000000000000000000000000000000000000000000000000000000000000000000000000000000000B7
:400940000000000000000000000000000000000000000000000000000000000000000000000000000000000000000000000000000000000000000000000000000000000077
:400980000000000000000000000000000000000000000000000000000000000000000000000000000000000000000000000000000000040000000000000000000000000033
:4009C00000000000000000000000000000000000000000000000000000000000000004000000000000000000000000000000000000000000000000000000000040000000B3
:400A00000000000000000000000000000000000000000000000000000000000000000000000000000000000040000000000000000000000000000000000000000000100066
:400A40000000000000000000000000000000000000000000000000000000000000000000000000000000000000000000000000000000000000000000000000000000000076
:400A800000000000000000000000000000000000000000000000000000000000000000000000000000000000400000000000000000000000000000000000000000000000F6
:400AC00000000000000000000000000000000000000000000000008000000000000000000000000000000000000000000000000000000000000000800000000000000000F6
:400B00000000000000000000000000000000000000000000000000000000000000000000000000008000000000000000000000000000000000001000000000000000000025
:400B400000000000000000000000000000000000000000000000000000000000000000000000000000000000000000000000000000000000000000800000004000000000B5
:400B800000000000000000000000000000000000000000000000000000000000000000000000000000000000000000000000000000000000000000000000000000008000B5
:400BC0000000000000000000000000000000000000000000000000000000000000000000000000000000000000000000000000400000000000000080000000000000000035
:400C000000000000000000000000000000000000000000000000000000000000000000000000000000000000000000000000000000000000000000000000000000000000B4
:400C400000000000000000000000000000000000000000000000000000000000000000000000000000000000000000000000004000000000000000800000000000000000B4
:400C80000000000000000000000000000000000000000000000000000000000000000000000000000000000000000000000000000000000000000000000000000000000034
:400CC00000000000000000000000000000000000000000000000000000000000000000000000000000000000000000000000000000000000000000000000000000000000F4
:400D000000000080000000400000000000000000000000000000000000000000000000000000000000000000000000000000000000000000000000000000000000000000F3
:400D40000000000000000000000000000000000000000000000000000000000000000000000000000000000000000000000000000000000000000000000000000000000073
:400D80000000000000000000000000000000000000000000000000000000000030000000000000000000000000000000000000000000000000000000000000000000000003
:400DC00000000000000000000000000000000000007F7F00000000000004040004000000400000430300000000000000007F7F00000000000012160010000000000000002D
:400E0000000020000300140116001801000000000000000000000000000000000000000000000000000000000000000000000000000000000000000000000000000000004B
:400E40000000000000000000000000000000000000000000000000000000000000000000000000000000000000000000000000000000000000000000000000000000000072
:400E80000000000000000000000000000000000000000000000000000000000000000000000000000000000000000000000000000000000000000000000000000000000032
:400EC00000000000000000000000000000000000000000000000000000000000000000000000000000000000000000000000000000000000000000000000000000000000F2
:400F000000000000000000000000000000000000000000000000000000000000000000000000000000000000000000000000000000000000000000000000000000000000B1
:0200000490006A
:0400000000004005B7
:0200000490105A
:04000000BC90ACAF55
:0200000490303A
:0200000028D105
:0200000490402A
:4000000000000000000000000000000000000000000000000000000000000000000000000000000000000000000000000000000000000000000000000000000000000000C0
:400040000000000000000000000000000000000000000000000000000000000000000000000000000000000000000000000000000000000000000000000000000000000080
:400080000000000000000000000000000000000000000000000000000000000000000000000000000000000000000000000000000000000000000000000000000000000040
:4000C0000000000000000000000000000000000000000000000000000000000000000000000000000000000000000000000000000000000000000000000000000000000000
:0200000490501A
:0C00000000012E12306900012E22593A36
:00000001FF